:040000004DEF0AF0C6
:100800000049257525754E2575460D0A0000000125
:1008100065BF0DEF04F00FEF04F010EF04F06693E6
:1008200065BF1DEF04F0655106E16405D8B01BEF0C
:1008300004F01DEF04F023EF04F0000E2F6E010E04
:100840002E6E27EF04F064C02EF065C02FF062C05A
:1008500030F063C031F01EC032F01FC033F020C052
:1008600034F021C035F022C036F023C037F024C068
:1008700038F025C039F0000E3B6E1F0E3A6E000EA8
:10088000876FB9EF04F03A06D8A03B06680E3A2409
:10089000D96E000E3B20DA6E32C001F033C002F098
:1008A00034C003F035C004F036C005F037C006F0A0
:1008B00038C007F039C008F00A0E096E000E0A6E43
:1008C000000E0B6E000E0C6E000E0D6E000E0E6E06
:1008D000000E0F6E000E106E50EC07F001C026F0F7
:1008E00002C027F003C028F004C029F005C02AF098
:1008F00006C02BF007C02CF008C02DF02650300F9A
:10090000DF6E2E06D8A02F063006D8A0310632C0E2
:1009100001F033C002F034C003F035C004F036C03B
:1009200005F037C006F038C007F039C008F00A0EED
:10093000096E000E0A6E000E0B6E000E0C6E000E9D
:100940000D6E000E0E6E000E0F6E000E106ED8ECC7
:1009500006F001C032F002C033F003C034F004C02E
:1009600035F005C036F006C037F007C038F008C0D3
:1009700039F03A503B10D8B4C0EF04F0C2EF04F0A5
:10098000F3EF04F0325033103410351036103710B6
:1009900038103910D8A4CFEF04F0D1EF04F043EFB2
:1009A00004F02FBEDEEF04F02F5006E12E04D8B085
:1009B000DCEF04F0DEEF04F043EF04F031BEE9EFCA
:1009C00004F0315008E13004D8A0E9EF04F0EBEF77
:1009D00004F0F3EF04F0000166B3F1EF04F0F3EF7D
:1009E00004F043EF04F01CC011F01DC012F0680EBB
:1009F0003A24136E000E3B20146E30C015F031C047
:100A000016F01DEC08F011C01CF012C01DF0120011
:100A10003EC0D9FF3FC0DAFFDECFF6FFDDCFF7FFE4
:100A20000800F550250AD8A418EF05F01AEF05F0D4
:100A3000B5EF05F03EC0D9FF3FC0DAFFDE2A000E59
:100A4000DD22000E0001636F000E626F62C066F06F
:100A500063C067F0646965693EC0D9FF3FC0DAFFD3
:100A6000DECFF6FFDDCFF7FF0800F550750AD8A4FA
:100A70003CEF05F03EEF05F07FEF05F03EC0D9FFFB
:100A80003FC0DAFFDE2A000EDD2240C0D9FF41C0A0
:100A9000DAFFDFCF42F0020EDE26DFCF43F0000E9A
:100AA000DD2242C0D9FF43C0DAFFDECF44F0DDCF04
:100AB00045F044C046F045C047F0486A496A4A6A72
:100AC0004B6A4C6A4D6A3CC01CF03DC01DF046C0EC
:100AD0001EF047C01FF048C020F049C021F04AC0B6
:100AE00022F04BC023F04CC024F04DC025F007ECA1
:100AF00004F01CC03CF01DC03DF0D0EF05F03EC03E
:100B0000D9FF3FC0DAFFDECFF6FFDDCFF7FF0800E9
:100B1000F550250AD8A48FEF05F091EF05F0A8EF66
:100B200005F03EC0D9FF3FC0DAFFDE2A000EDD220D
:100B3000000E026E250E016E3CC003F03DC004F0B5
:100B4000B8EC07F0000E3D6E010E3C6ED0EF05F0E4
:100B50003EC0D9FF3FC0DAFFDE2A000EDD22000EC4
:100B60003D6E000E3C6ED0EF05F03EC0D9FF3FC099
:100B7000DAFFDECFF6FFDDCFF7FF0800F550016E9C
:100B8000026A3CC003F03DC004F0B8EC07F03EC080
:100B9000D9FF3FC0DAFFDE2A000EDD22A2EF05F00A
:100BA0001200000E166E14BEDAEF05F0D8EF05F055
:100BB000E4EF05F0141E131E121E116C000E12221B
:100BC00013221422010E166E10BEEBEF05F0E9EFB2
:100BD00005F0F5EF05F0101E0F1E0E1E0D6C000E39
:100BE0000E220F221022010E161A000E176E000E92
:100BF000186E000E196E000E1A6E1150121013109E
:100C00001410D8B406EF06F008EF06F03EEF06F039
:100C1000010E156E12EF06F0D8901136123613360B
:100C20001436152A14AE17EF06F019EF06F00CEF84
:100C300006F0D8901736183619361A3611500D5C52
:100C400012500E5813500F5814501058D8A02BEFB4
:100C500006F02DEF06F036EF06F011500D5E125043
:100C60000E5A13500F5A1450105A1780D89014323D
:100C7000133212321132152E19EF06F01650D8B475
:100C800044EF06F046EF06F04EEF06F01A1E191E6E
:100C9000181E176C000E182219221A2217C00DF008
:100CA00018C00EF019C00FF01AC010F012000E0E8E
:100CB00065EC0AF093809382800E0E6E250E0F6E07
:100CC000000E106E000E116E0FEC09F081B06BEF8C
:100CD00006F070EF06F000019E6B9E2B72EF06F09F
:100CE00000019E6B9E519F6FA06B81B27AEF06F060
:100CF0007EEF06F09E6B9E2B80EF06F000019E6B50
:100D00009E51A16FA26B000ED5EC09F001C01BF043
:100D100002C01CF01D6A1E6A000E1F6E000E206EBF
:100D2000000E216E000E226EFF0E236E030E246E47
:100D3000000E256E000E266E000E276E000E286E29
:100D4000000E296E000E2A6EFA0E2B6E000E2C6E0F
:100D5000000E2D6E000E2E6ED2EC08F01B5000011E
:100D6000A36F880E566E000E576E010E586E080E59
:100D7000596E9FC05AF0A0C05BF0A1C05CF0A2C049
:100D80005DF0A3C05EF05F6AACEC09F0880E026E05
:100D9000000E036E35EC0AF09C0E00019E6FD70E1C
:100DA000E82EFED79E2FFCD766EF06F000EF00F08E
:100DB00020EE11F0070EDE6AE806FDE209500A1087
:100DC0000B100C100D100E100F101010D8B4EBEF0C
:100DD00006F0EDEF06F03FEF07F0010E196EFBEFA6
:100DE00006F0D89009360A360B360C360D360E361C
:100DF0000F361036192A10AE00EF07F002EF07F099
:100E0000F1EF06F0D8901136123613361436153637
:100E10001636173618360950015C0A5002580B5026
:100E200003580C5004580D5005580E5006580F50DA
:100E3000075810500858D8A020EF07F022EF07F00D
:100E400033EF07F00950015E0A50025A0B50035A63
:100E50000C50045A0D50055A0E50065A0F50075A9E
:100E60001050085A1180D89010320F320E320D32C5
:100E70000C320B320A320932192E02EF07F011C080
:100E800001F012C002F013C003F014C004F015C04A
:100E900005F016C006F017C007F018C008F01200E1
:100EA00009500A100B100C100D100E100F1010101E
:100EB000D8B45DEF07F05FEF07F0A7EF07F0010E82
:100EC000116E6DEF07F0D89009360A360B360C36E6
:100ED0000D360E360F361036112A10AE72EF07F0AF
:100EE00074EF07F063EF07F00950015C0A500258F5
:100EF0000B5003580C5004580D5005580E5006580E
:100F00000F50075810500858D8A089EF07F08BEF02
:100F100007F09BEF07F00950015E0A50025A0B5090
:100F2000035A0C50045A0D50055A0E50065A0F50D1
:100F3000075A1050085AD89010320F320E320D3224
:100F40000C320B320A320932112E74EF07F001C055
:100F500001F002C002F003C003F004C004F005C0B9
:100F600005F006C006F007C007F008C008F0120040
:100F700003500410D8B4BFEF07F0C1EF07F0CAEF79
:100F800007F003500410D8A4C8EF07F0CAEF07F029
:100F9000CFEF07F001506DEC0AF01CEF08F020EEE7
:100FA00004F00350D9260450DA22DE50DE10D8B403
:100FB000DCEF07F0DEEF07F0F9EF07F020EE04F0CA
:100FC0000350D9260450DA2210EE02F00350E12635
:100FD0000450E222DE50E65CE650800A096EDE50E4
:100FE000800A0958D8B0F7EF07F0F9EF07F01CEFC7
:100FF00008F020EE02F00350D9260450DA22DECFAA
:1010000005F0DDCF06F003C0D9FF04C0DAFFDECF64
:1010100007F0DDCF08F005500724D96E06500820F0
:10102000DA6E01C0DFFF20EE02F00350D926045033
:10103000DA22DE2A000EDD221200000166A123EF73
:1010400008F025EF08F02FEF08F013C00AF014C0E5
:101050000BF011C00CF012C00DF0F8EC09F016BE48
:1010600034EF08F036EF08F03CEF08F015C01AF046
:1010700016C01BF040EF08F0000E1B6E000E1A6E3B
:10108000000E196E000E186E52EF08F0000E026E80
:10109000200E016E11C003F012C004F0B8EC07F08E
:1010A000184A192A1A50185C1950800A176E1B50DA
:1010B000800A1758D8A05FEF08F061EF08F046EFFC
:1010C00008F0000166B167EF08F069EF08F073EF10
:1010D00008F013C00AF014C00BF011C00CF012C0DD
:1010E0000DF0F8EC09F013C001F014C002F01AEC96
:1010F0000AF01A500124116E1B500220126E1200C9
:10110000000E096E000E0A6E000E0B6E000E0C6EC5
:101110000550061007100810D8B491EF08F093EFAF
:1011200008F0C9EF08F0010E0D6E9DEF08F0D890A1
:1011300005360636073608360D2A08AEA2EF08F047
:10114000A4EF08F097EF08F0D89009360A360B366E
:101150000C360550015C06500258075003580850E1
:101160000458D8A0B6EF08F0B8EF08F0C1EF08F0C7
:101170000550015E0650025A0750035A0850045A9F
:101180000980D89008320732063205320D2EA4EFBE
:1011900008F009C001F00AC002F00BC003F00CC057
:1011A00004F012001F501B5C016E20501C58026E90
:1011B00021501D58036E22501E58046E27502B5C80
:1011C000056E28502C58066E29502D58076E2A504F
:1011D0002E58086E46EC09F001C00DF002C00EF06A
:1011E00003C00FF004C010F01F50235C116E20509C
:1011F0002458126E21502558136E22502658146E12
:10120000D1EC05F027500D241B6E28500E201C6ECB
:1012100029500F201D6E2A5010201E6E1200949C23
:10122000948E240EAC6E900EAB6E000EB86EB88627
:10123000000E016E6C0E026EDC0E036E020E046E6A
:101240000EC012F00FC013F010C014F011C015F052
:10125000020ED8901236133614361536E82E29EFC2
:1012600009F012C005F013C006F014C007F015C055
:1012700008F080EC08F0FF0E0124166EFF0E02202D
:10128000176E16C0AFFF1750B06E1200000E096E39
:10129000000E0A6E000E0B6E000E0C6E01A053EFD6
:1012A00009F055EF09F05DEF09F0055009260650E9
:1012B0000A2207500B2208500C22D8900536063619
:1012C00007360836D8900432033202320132015018
:1012D000021003100410D8A470EF09F072EF09F0A7
:1012E0004EEF09F009C001F00AC002F00BC003F094
:1012F0000CC004F0120050C054F051C055F0000E64
:101300000001616F000E606F99EF09F04EC03CF074
:101310004FC03DF0540E3E6E000E3F6E52C040F086
:1013200053C041F008EC05F03C50000160273D50EF
:10133000612354C0F6FF55C0F7FF0800F5500009BF
:10134000D8A4A5EF09F0A7EF09F086EF09F060C077
:101350004EF061C04FF012005A0E0001966F000E61
:10136000976F56C098F057C099F0000E9B6F000E13
:101370009A6F000E9D6F000E9C6F980E4E6E000EC1
:101380004F6E58C050F059C051F0960E526E000E7C
:10139000536E7BEC09F000019A515624D96E9B5193
:1013A0005720DA6E000EDF6E1200036E0D0E03641E
:1013B000DCEF09F0DEEF09F0E4EF09F0000E026E59
:1013C000000E016EF7EF09F0000EC26E0344E8460E
:1013D000FC0BC26EC280C282C2B2F1EF09F0F3EF21
:1013E00009F0ECEF09F0C3CF01F0C4CF02F0120016
:1013F000000E106E000E0F6E09EF0AF00EC001F025
:10140000026A0CC003F00DC004F0B8EC07F00F4AFC
:10141000102A0F500A24D96E10500B20DA6EDF50BC
:101420000E6E0E50D8A417EF0AF019EF0AF0FEEF77
:1014300009F0120001C003F002C004F022EF0AF02C
:10144000014A022A01C0D9FF02C0DAFFDF50D8A446
:101450002CEF0AF02EEF0AF020EF0AF00350015CA7
:10146000016E04500258026E120040EF0AF002C0F2
:10147000D9FF03C0DAFFDF505AEC0AF0024A032A10
:1014800002C0D9FF03C0DAFFDF50D8A44AEF0AF048
:101490004CEF0AF037EF0AF0120000EE60F0360E63
:1014A000EE6AE806FDE1000EF86E080EF76E000128
:1014B00057EF06F0016EACA260EF0AF062EF0AF09F
:1014C0005BEF0AF001C0ADFF1200016E01C0C1FF69
:0C14D000000EC26E8F0EC06E12001200E3
:020000040020DA
:08000000FFFFFFFFFFFFFFFF00
:020000040030CA
:0E000000210E191EFF8181FF0FC00FE00F407F
:00000001FF
