:04000000A1EF3CF040
:10793600016E0140E8423F0BBE6E120000EE24F0DD
:10794600160EEE6AE806FDE1000EF86E0001BDEFC8
:107956003EF09EBAB1EF3CF0B5EF3CF0036A032A65
:10796600B6EF3CF0036A0350016E026A12003E0E47
:10797600CB6E000EBE6E9494000EBB6E9492030EF8
:10798600CA6E0C0EBD6E0C0EBA6E000ECC6ECA849C
:1079960012009EAAD1EF3CF0D3EF3CF0CCEF3CF0C6
:1079A600ABA2D8EF3CF0DAEF3CF0DCEF3CF0AB9862
:1079B600AB889E9AAE50120001500302F3CF05F039
:1079C600F4CF06F001500402F350062602500302DB
:1079D600F350062605C001F006C002F0120001C0F1
:1079E60003F002C004F0FAEF3CF0014A022A01C09B
:1079F600D9FF02C0DAFFDF50D8A404EF3DF006EF4E
:107A06003DF0F8EF3CF00350015C016E0450025863
:107A1600026E1200D00E036EFF0E046E01C005F05A
:107A260002C006F0035005260450062206500AE15D
:107A36000A0E055CD8A022EF3DF025EF3DF0010EC1
:107A460026EF3DF0000E016E026A1200010E076E6F
:107A5600200E01180210D8B433EF3DF035EF3DF09B
:107A66004EEF3DF0F70E036EFF0E046E01C005F0FB
:107A760002C006F00350052604500622065009E10E
:107A8600050E055CD8A04AEF3DF04CEF3DF04EEFF9
:107A96003DF0000E076E07C001F0026A1200000EEC
:107AA6000D6E000E0C6E05C00AF006C00BF06EEFF0
:107AB6003DF00A500124D96E0B500220DA6E0C50AC
:107AC6000324E16E0D500420E26EDFCFE7FF0C4A7F
:107AD6000D2A0A4A0B2A0A50075C0850800A096ECA
:107AE6000B50800A0958D8B07BEF3DF07DEF3DF092
:107AF6005CEF3DF00C500324D96E0D500420DA6E75
:107B0600000EDF6E1200000E096E000E086ECCEC41
:107B16003CF0076E08500124D96E09500220DA6E37
:107B260007C0DFFF084A092A0350085C04500958B9
:107B3600D8A0A0EF3DF0A2EF3DF0A4EF3DF0ADEFF1
:107B46003DF00A0E0718D8A4ABEF3DF0ADEF3DF0BF
:107B56008AEF3DF008500124056E09500220066E9A
:107B6600FE0E0524D96EFF0E0620DA6E000EDF6EBD
:107B76001200949C948E240EAC6E900EAB6E000E8A
:107B8600B86EB886000E016E6C0E026EDC0E036EC9
:107B9600020E046E0EC012F00FC013F010C014F0E7
:107BA60011C015F0020ED89012361336143615365B
:107BB600E82ED6EF3DF012C005F013C006F014C053
:107BC60007F015C008F0F3EC3DF0FF0E0124166E29
:107BD600FF0E0220176E16C0AFFF1750B06E1200D0
:107BE600000E096E000E0A6E000E0B6E000E0C6E75
:107BF6000550061007100810D8B404EF3EF006EF43
:107C06003EF03CEF3EF0010E0D6E10EF3EF0D890C8
:107C160005360636073608360D2A08AE15EF3EF04D
:107C260017EF3EF00AEF3EF0D89009360A360B36CB
:107C36000C360550015C0650025807500358085090
:107C46000458D8A029EF3EF02BEF3EF034EF3EF07B
:107C56000550015E0650025A0750035A0850045A4E
:107C66000980D89008320732063205320D2E17EFFA
:107C76003EF009C001F00AC002F00BC003F00CC0D0
:107C860004F01200166E000E186E000E176E000E2F
:107C96001A6E000E196E000E1C6E000E1B6E6BEF38
:107CA6003EF01B500F24D96E1C501020DA6E165071
:107CB600DE18D8A461EF3EF063EF3EF069EF3EF0C8
:107CC6001BC017F01CC018F07AEF3EF01B4A1C2AA6
:107CD60013501B5C1C50800A156E1450800A1558F0
:107CE600D8A078EF3EF07AEF3EF054EF3EF0000E6B
:107CF6001E6E000E1D6E97EF3EF01D500F24D96EBE
:107D06001E501020DA6E0E50DE18D8A48DEF3EF00D
:107D16008FEF3EF095EF3EF01DC019F01EC01AF031
:107D2600A6EF3EF01D4A1E2A13501D5C1E50800A07
:107D3600156E1450800A1558D8A0A4EF3EF0A6EF91
:107D46003EF080EF3EF00FC001F010C002F011C00F
:107D560003F012C004F0010E1724056E000E182061
:107D6600066EFF0E1924076EFF0E1A20086E52ECDF
:107D76003DF012000F0EC112959095928C908C9248
:107D8600BAEC3CF0800E0E6E250E0F6E000E106ED5
:107D9600000E116EBCEC3DF0ACEC3CF002BEDCEF2C
:107DA6003EF0025008E10104D8A0DCEF3EF0DEEF21
:107DB6003EF0CFEF3EF0240E016E000E026E000E76
:107DC600046E0E0E036E86EC3DF04E0E0E6E240E05
:107DD6000F6E000E106E320E116E000E126E240E15
:107DE600016E000E026EF2EC3CF001C013F002C010
:107DF60014F0490E45EC3EF0460E0E6E240E0F6E44
:107E0600000E106E360E116E000E126E240E016EEE
:107E1600000E026EF2EC3CF001C013F002C014F04A
:107E26004E0E45EC3EF0D00E32241F6E206AFF0E39
:107E36002022D00E3324216E226AFF0E2222360E15
:107E4600086E000E096E3BEC3FF00850236E1FB023
:107E560002D08C9001D08C8021B002D08C9201D0BF
:107E66008C8223509BEC3CF0CFEF3EF000EF00F00D
:107E7600000E166E000E156E000E0F6E000E0E6EC4
:107E860047EF3FF0084A092A010E146E08C0D9FFD1
:107E960009C0DAFF200EDE18D8B454EF3FF056EFD3
:107EA6003FF072EF3FF0F70E0A6EFF0E0B6E08C042
:107EB600D9FF09C0DAFFDF500C6E0D6A0A500C2696
:107EC6000B500D220D5009E1050E0C5CD8A06EEF8B
:107ED6003FF070EF3FF072EF3FF0000E146E14C0EB
:107EE60010F0116A10501110D8A47CEF3FF07EEF0D
:107EF6003FF045EF3FF088EF3FF0000E0F6E010EAA
:107F06000E6E084A092ABDEF3FF008C0D9FF09C026
:107F1600DAFFDF500A6E0B6A0B50000AD8B496EFF0
:107F26003FF0BDEF3FF00A502B0AD8B484EF3FF084
:107F3600060AD8B480EF3FF0BDEF3FF015C001F060
:107F460016C002F0000E046E0A0E036EDFEC3CF063
:107F560008C0D9FF09C0DAFFDF500A6E0A50015E79
:107F6600000E025A300E0124156E000E0220166E07
:107F760084EF3FF0D00E0A6EFF0E0B6E08C0D9FFDD
:107F860009C0DAFFDF500C6E0D6A0A500C260B5042
:107F96000D220D500AE10A0E0C5CD8A0D5EF3FF079
:107FA600D8EF3FF0010ED9EF3FF0000E126E136AC4
:107FB60012501310D8A4E2EF3FF0E4EF3FF0A1EF28
:107FC6003FF00E500F10D8A4EBEF3FF0EDEF3FF06F
:107FD600FBEF3FF015C00AF016C00BF00A1E0B1E91
:107FE6000A4A0B2A0AC008F00BC009F0FFEF3FF05F
:0A7FF60015C008F016C009F01200D3
:020000040020DA
:08000000FFFFFFFFFFFFFFFF00
:020000040030CA
:0E000000210E191EFF8181FF0FC00FE00F407F
:00000001FF
