:0400000070EF0AF0A3
:070800000025750D0A000040
:10080800000165BF0AEF04F00CEF04F00DEF04F0EF
:10081800669365BF1AEF04F0655106E16405D8B028
:1008280018EF04F01AEF04F020EF04F0000E2F6E1A
:10083800010E2E6E24EF04F064C02EF065C02FF078
:1008480062C030F063C031F01EC032F01FC033F018
:1008580020C034F021C035F022C036F023C037F074
:1008680024C038F025C039F0000E3B6E1F0E3A6EDA
:10087800000E876FB6EF04F03A06D8A03B06680E64
:100888003A24D96E000E3B20DA6E32C001F033C034
:1008980002F034C003F035C004F036C005F037C0AC
:1008A80006F038C007F039C008F00A0E096E000ECD
:1008B8000A6E000E0B6E000E0C6E000E0D6E000E12
:1008C8000E6E000E0F6E000E106E8DEC07F001C05C
:1008D80026F002C027F003C028F004C029F005C0A4
:1008E8002AF006C02BF007C02CF008C02DF02650C7
:1008F800300FDF6E2E06D8A02F063006D8A031069E
:1009080032C001F033C002F034C003F035C004F047
:1009180036C005F037C006F038C007F039C008F017
:100928000A0E096E000E0A6E000E0B6E000E0C6E9B
:10093800000E0D6E000E0E6E000E0F6E000E106E85
:1009480015EC07F001C032F002C033F003C034F0F8
:1009580004C035F005C036F006C037F007C038F0DF
:1009680008C039F03A503B10D8B4BDEF04F0BFEFDF
:1009780004F0F0EF04F03250331034103510361014
:10098800371038103910D8A4CCEF04F0CEEF04F0AB
:1009980040EF04F02FBEDBEF04F02F5006E12E04E9
:1009A800D8B0D9EF04F0DBEF04F040EF04F031BE2B
:1009B800E6EF04F0315008E13004D8A0E6EF04F087
:1009C800E8EF04F0F0EF04F0000166B3EEEF04F096
:1009D800F0EF04F040EF04F01CC011F01DC012F05D
:1009E800680E3A24136E000E3B20146E30C015F0CA
:1009F80031C016F05AEC08F011C01CF012C01DF0FE
:100A080012003EC0D9FF3FC0DAFFDECFF6FFDDCFD0
:100A1800F7FF0800F550250AD8A415EF05F017EFE1
:100A280005F0B2EF05F03EC0D9FF3FC0DAFFDE2A7D
:100A3800000EDD22000E0001636F000E626F62C0BF
:100A480066F063C067F0646965693EC0D9FF3FC05E
:100A5800DAFFDECFF6FFDDCFF7FF0800F550750AA5
:100A6800D8A439EF05F03BEF05F07CEF05F03EC068
:100A7800D9FF3FC0DAFFDE2A000EDD2240C0D9FFD1
:100A880041C0DAFFDFCF42F0020EDE26DFCF43F0AF
:100A9800000EDD2242C0D9FF43C0DAFFDECF44F0AA
:100AA800DDCF45F044C046F045C047F0486A496A82
:100AB8004A6A4B6A4C6A4D6A3CC01CF03DC01DF046
:100AC80046C01EF047C01FF048C020F049C021F0C2
:100AD8004AC022F04BC023F04CC024F04DC025F092
:100AE80004EC04F01CC03CF01DC03DF0CDEF05F057
:100AF8003EC0D9FF3FC0DAFFDECFF6FFDDCFF7FFFC
:100B08000800F550250AD8A48CEF05F08EEF05F003
:100B1800A5EF05F03EC0D9FF3FC0DAFFDE2A000E80
:100B2800DD22000E026E250E016E3CC003F03DC0B2
:100B380004F0F5EC07F0000E3D6E010E3C6ECDEFB3
:100B480005F03EC0D9FF3FC0DAFFDE2A000EDD22E5
:100B5800000E3D6E000E3C6ECDEF05F03EC0D9FF95
:100B68003FC0DAFFDECFF6FFDDCFF7FF0800F55014
:100B7800016E026A3CC003F03DC004F0F5EC07F0DA
:100B88003EC0D9FF3FC0DAFFDE2A000EDD229FEF0C
:100B980005F01200000E166E000E156E000E0F6E98
:100BA800000E0E6EDAEF05F0084A092A010E146EDF
:100BB80008C0D9FF09C0DAFF200EDE18D8B4E7EF65
:100BC80005F0E9EF05F005EF06F0F70E0A6EFF0EE7
:100BD8000B6E08C0D9FF09C0DAFFDF500C6E0D6A32
:100BE8000A500C260B500D220D5009E1050E0C5C25
:100BF800D8A001EF06F003EF06F005EF06F0000EAF
:100C0800146E14C010F0116A10501110D8A40FEF10
:100C180006F011EF06F0D8EF05F01BEF06F0000E16
:100C28000F6E010E0E6E084A092A50EF06F008C032
:100C3800D9FF09C0DAFFDF500A6E0B6A0B50000AB1
:100C4800D8B429EF06F050EF06F00A502B0AD8B4B2
:100C580017EF06F0060AD8B413EF06F050EF06F0C7
:100C680015C001F016C002F0000E046E0A0E036EE5
:100C780087EC0AF008C0D9FF09C0DAFFDF500A6E16
:100C88000A50015E000E025A300E0124156E000E45
:100C98000220166E17EF06F0D00E0A6EFF0E0B6ECE
:100CA80008C0D9FF09C0DAFFDF500C6E0D6A0A5080
:100CB8000C260B500D220D500AE10A0E0C5CD8A030
:100CC80068EF06F06BEF06F0010E6CEF06F0000E11
:100CD800126E136A12501310D8A475EF06F077EF4E
:100CE80006F034EF06F00E500F10D8A47EEF06F091
:100CF80080EF06F08EEF06F015C00AF016C00BF074
:100D08000A1E0B1E0A4A0B2A0AC008F00BC009F07B
:100D180092EF06F015C008F016C009F012000F0E89
:100D2800C11293689590959295949596000E8C6E45
:100D380094948B94800E0E6E250E0F6E000E106E1E
:100D4800000E116E0FEC09F0CEEF06F08B84815087
:100D58000F0B5D6E880E566E000E576E010E586EA4
:100D6800080E596E5DC05AF05B6AADEC09F0880E4A
:100D7800026E000E036E58EC0AF09C0E5C6ED70EE5
:100D8800E82EFED75C2EFCD700F0000E0001A56F00
:100D9800000EA46F0001A405A511D8B4D6EF06F083
:100DA800D8EF06F0AAEF06F08B94920E016E000EB3
:100DB800026E000E046E0A0E036E46EC09F0920EE7
:100DC800016E000E026E3DEC0AF001500210D8B41C
:100DD800F0EF06F0F2EF06F009EF07F0920E086E5A
:100DE800000E096ECEEC05F008505E6E5EC08CFFFA
:100DF8009C0E5C6ED70EE82EFED75C2EFCD700F05A
:100E0800000E0001A56F010EA46F100E5C6E940E0B
:100E1800E82EFED75C2EFCD700D0CEEF06F000EF10
:100E280000F020EE11F0070EDE6AE806FDE2095038
:100E38000A100B100C100D100E100F101010D8B453
:100E480028EF07F02AEF07F07CEF07F0010E196E84
:100E580038EF07F0D89009360A360B360C360D36BF
:100E68000E360F361036192A10AE3DEF07F03FEF59
:100E780007F02EEF07F0D8901136123613361436D5
:100E880015361636173618360950015C0A500258BE
:100E98000B5003580C5004580D5005580E50065866
:100EA8000F50075810500858D8A05DEF07F05FEFB3
:100EB80007F070EF07F00950015E0A50025A0B5014
:100EC800035A0C50045A0D50055A0E50065A0F502A
:100ED800075A1050085A1180D89010320F320E322B
:100EE8000D320C320B320A320932192E3FEF07F05D
:100EF80011C001F012C002F013C003F014C004F0D6
:100F080015C005F016C006F017C007F018C008F0A5
:100F1800120009500A100B100C100D100E100F10B3
:100F28001010D8B49AEF07F09CEF07F0E4EF07F041
:100F3800010E116EAAEF07F0D89009360A360B3663
:100F48000C360D360E360F361036112A10AEAFEFAE
:100F580007F0B1EF07F0A0EF07F00950015C0A5065
:100F680002580B5003580C5004580D5005580E5099
:100F780006580F50075810500858D8A0C6EF07F069
:100F8800C8EF07F0D8EF07F00950015E0A50025A7F
:100F98000B50035A0C50045A0D50055A0E50065A5D
:100FA8000F50075A1050085AD89010320F320E328C
:100FB8000D320C320B320A320932112EB1EF07F022
:100FC80001C001F002C002F003C003F004C004F045
:100FD80005C005F006C006F007C007F008C008F015
:100FE800120003500410D8B4FCEF07F0FEEF07F02E
:100FF80007EF08F003500410D8A405EF08F007EF36
:1010080008F00CEF08F00150B9EC0AF059EF08F0BD
:1010180020EE04F00350D9260450DA22DE50DE1008
:10102800D8B419EF08F01BEF08F036EF08F020EEFF
:1010380004F00350D9260450DA2210EE02F00350CF
:10104800E1260450E222DE50E65CE650800A096E92
:10105800DE50800A0958D8B034EF08F036EF08F0AF
:1010680059EF08F020EE02F00350D9260450DA2296
:10107800DECF05F0DDCF06F003C0D9FF04C0DAFFEC
:10108800DECF07F0DDCF08F005500724D96E0650F3
:101098000820DA6E01C0DFFF20EE02F00350D926E7
:1010A8000450DA22DE2A000EDD221200000166A1B9
:1010B80060EF08F062EF08F06CEF08F013C00AF078
:1010C80014C00BF011C00CF012C00DF0FFEC09F0C9
:1010D80016BE71EF08F073EF08F079EF08F015C04D
:1010E8001AF016C01BF07DEF08F0000E1B6E000E04
:1010F8001A6E000E196E000E186E8FEF08F0000EB3
:10110800026E200E016E11C003F012C004F0F5EC5F
:1011180007F0184A192A1A50185C1950800A176ED5
:101128001B50800A1758D8A09CEF08F09EEF08F0D3
:1011380083EF08F0000166B1A4EF08F0A6EF08F00D
:10114800B0EF08F013C00AF014C00BF011C00CF097
:1011580012C00DF0FFEC09F013C001F014C002F04A
:101168003DEC0AF01A500124116E1B500220126E39
:101178001200000E096E000E0A6E000E0B6E000EB5
:101188000C6E0550061007100810D8B4CEEF08F002
:10119800D0EF08F006EF09F0010E0D6EDAEF08F057
:1011A800D89005360636073608360D2A08AEDFEF22
:1011B80008F0E1EF08F0D4EF08F0D89009360A36C5
:1011C8000B360C360550015C065002580750035880
:1011D80008500458D8A0F3EF08F0F5EF08F0FEEF38
:1011E80008F00550015E0650025A0750035A08508D
:1011F800045A0980D89008320732063205320D2E7B
:10120800E1EF08F009C001F00AC002F00BC003F0DA
:101218000CC004F01200949C948E240EAC6E900EB8
:10122800AB6E000EB86EB886000E016E6C0E026EC4
:10123800DC0E036E020E046E0EC012F00FC013F027
:1012480010C014F011C015F0020ED89012361336E3
:1012580014361536E82E29EF09F012C005F013C030
:1012680006F014C007F015C008F0BDEC08F0FF0E3A
:101278000124166EFF0E0220176E16C0AFFF17501E
:10128800B06E1200000E096E000E086E9AEC0AF09D
:10129800076E08500124D96E09500220DA6E07C083
:1012A800DFFF084A092A0350085C04500958D8A0EF
:1012B80060EF09F062EF09F064EF09F06DEF09F0F3
:1012C8000A0E0718D8A46BEF09F06DEF09F04AEF82
:1012D80009F008500124056E09500220066EFE0E22
:1012E8000524D96EFF0E0620DA6E000EDF6E12009E
:1012F80050C054F051C055F0000E0001616F000E4F
:10130800606F9AEF09F04EC03CF04FC03DF0540EAC
:101318003E6E000E3F6E52C040F053C041F005ECE7
:1013280005F03C50000160273D50612354C0F6FF92
:1013380055C0F7FF0800F5500009D8A4A6EF09F03A
:10134800A8EF09F087EF09F060C04EF061C04FF0D8
:1013580012005A0E00019C6F000E9D6F56C09EF041
:1013680057C09FF0000EA16F000EA06F000EA36F74
:10137800000EA26F9E0E4E6E000E4F6E58C050F0BB
:1013880059C051F09C0E526E000E536E7CEC09F061
:101398000001A0515624D96EA1515720DA6E000ED3
:1013A800DF6E1200010E076E200E01180210D8B46D
:1013B800E0EF09F0E2EF09F0FBEF09F0F70E036E3A
:1013C800FF0E046E01C005F002C006F003500526AA
:1013D80004500622065009E1050E055CD8A0F7EF77
:1013E80009F0F9EF09F0FBEF09F0000E076E07C0EE
:1013F80001F0026A1200000E106E000E0F6E10EF60
:101408000AF00EC001F0026A0CC003F00DC004F02F
:10141800F5EC07F00F4A102A0F500A24D96E105025
:101428000B20DA6EDF500E6E0E50D8A41EEF0AF0B5
:1014380020EF0AF005EF0AF01200D00E036EFF0E3F
:10144800046E01C005F002C006F0035005260450E2
:10145800062206500AE10A0E055CD8A036EF0AF00B
:1014680039EF0AF0010E3AEF0AF0000E016E026A37
:10147800120001C003F002C004F045EF0AF0014A6F
:10148800022A01C0D9FF02C0DAFFDF50D8A44FEF0B
:101498000AF051EF0AF043EF0AF00350015C016EC5
:1014A80004500258026E120063EF0AF002C0D9FF1E
:1014B80003C0DAFFDF50ADEC0AF0024A032A02C08B
:1014C800D9FF03C0DAFFDF50D8A46DEF0AF06FEF41
:1014D8000AF05AEF0AF01200700EF66E150EF76E4B
:1014E800000EF86E0900F5CFA4F00900F5CFA5F0BD
:1014F80000EE60F03C0EEE6AE806FDE1000EF86EC4
:10150800000193EF06F001500302F3CF05F0F4CF8A
:1015180006F001500402F350062602500302F3506D
:10152800062605C001F006C002F012009EAA9FEF31
:101538000AF0A1EF0AF09AEF0AF0ABA2A6EF0AF0C0
:10154800A8EF0AF0AAEF0AF0AB98AB889E9AAE50C3
:101558001200016EACA2B3EF0AF0B5EF0AF0AEEFDD
:0C1568000AF001C0ADFF120001001200EB
:020000040020DA
:08000000FFFFFFFFFFFFFFFF00
:020000040030CA
:0E000000210E191EFF8181FF0FC00FE00F407F
:00000001FF
